:100000000C9434000C9451000C9451000C94510049
:100010000C9451000C9451000C9451000C9451001C
:100020000C9451000C9451000C9451000C9451000C
:100030000C9451000C9451000C948E020C945100BD
:100040000C9451000C9451000C9451000C945100EC
:100050000C9451000C9451000C9451000C945100DC
:100060000C9451000C94510011241FBECFEFD8E026
:10007000DEBFCDBF11E0A0E0B1E0E2E0FAE002C0F7
:1000800005900D92A031B107D9F721E0A0E1B1E0D0
:1000900001C01D92A733B207E1F70E94DC010C9466
:1000A000FF040C940000ECE7F0E080818064808322
:1000B000EAE7F0E08081876880832FEF83EC99E0A6
:1000C000215080409040E1F700C000000895ECE727
:1000D000F0E09081907F90839081892B80838FE1E5
:1000E00093E00197F1F700C00000EAE7F0E08081BB
:1000F00080648083808184FFFDCF20912601309130
:10010000780080917900E22FF0E0EE0FFF1FEE5EA5
:10011000FE4F90E0982F8827830F911D9183808355
:100120002F5F2A3018F42093260102C01092260176
:10013000E2E1F1E046E251E080E090E0219131918E
:10014000820F931FE417F507C9F76AE070E00E9479
:10015000D70470931101609310016F5F7F4FCB0143
:10016000880F991F880F991F680F791F072E000CA1
:10017000880B990B0E94DE0320E030E048EC52E44B
:100180000E946A0420E030E040E85AE30E946A04DA
:1001900020E030E040E450E40E943A030E94A603CD
:1001A000CB0108952BE0AC01249FC001259F900D49
:1001B000112462E370E00E94D704CB014E970895AA
:1001C000449840E050E0682F70E04598439898B11B
:1001D0009B01042E02C0359527950A94E2F7217001
:1001E0003327220F331F220F331F220F331F292BD8
:1001F00028B9459A4F5F5F4F4830510531F7449A0F
:100200000895CF93DF93EC01EFE2F1E02AE030E0D4
:10021000B9010E94D704DC01AC5FBE4F8C91808392
:10022000CB01B9010E94D704DC01AC5FBE4F8C91B9
:100230008183CE0164E670E00E94D704CB01B9014E
:100240000E94D704DC01AC5FBE4F8C918283CE014B
:1002500068EE73E00E94D704CB01B9010E94D70475
:10026000DC01AC5FBE4F8C918383DF91CF91089509
:100270008AB1806F8AB98BB18F708BB987B188636F
:1002800087B9449A80E090E00E940101089584B10A
:10029000807F84B985B18F6085B90895189B08C0A7
:1002A000199B08C01A9B08C01B9B08C080E00895DA
:1002B00081E0089582E0089583E0089584E0089540
:1002C00090910E019130E9F488236CF0082E000C17
:1002D000990B0E940101EFE2F1E08FEF82838091A0
:1002E000050183830895992781950CF490950E94C8
:1002F0000101EFE2F1E08FE78283809105018383C2
:10030000089588236CF0082E000C990B0E940101BF
:10031000EFE2F1E08FEF82838091060183830895FD
:10032000992781950CF490950E940101EFE2F1E08C
:100330008FE7828380910601838308958091B400C2
:10034000811108C082E88093B400809105018093F8
:10035000310108958091B400823841F48AEA809393
:10036000B400809106018093310108958091B4001A
:100370008A3A41F480EF8093B40080910701809322
:10038000310108958091B400803F31F41092B4009F
:100390008091040180933101089584B1806384B910
:1003A00085B18F7C85B908952C9A08952C9808956D
:1003B0002D9A08952D9808950E94CD010E941C0346
:1003C0000E942A030E9453000E9438010E944701A4
:1003D0007894809127010E946001C0E0D1E00EE195
:1003E00011E16894FF24F1F8809133018823A1F092
:1003F0001092330180913501882329F080910F01FB
:100400000E94600109C080E00E9467000E94D20043
:10041000809327010E94600180910E01813071F468
:100420000E94D60190910F018091270198171CF42A
:100430000E94D80110C00E94DA010DC00E94DA01AA
:1004400090910F018091270189171CF40E94D4011B
:1004500002C00E94D601CC2309F458C00E944E016C
:10046000882311F28FE193E00197F1F700C00000BB
:100470000E944E01823011F118F4813031F0B4CF76
:10048000833071F18430F1F1AFCF80910E01813072
:1004900019F4F0920E0102C0D0930E018091350143
:1004A000882331F080910F010E946001C0E09CCF51
:1004B000809127010E946001C0E096CF80910F01DA
:1004C0008F5F8F311CF480930F0102C000930F01E6
:1004D000D093350180910F010E946001C0E084CF6C
:1004E00080910F01815081311CF080930F0102C077
:1004F00010930F01D093350180910F010E9460018C
:10050000C0E072CF0E949E01C0E06ECF0E944E01FB
:10051000CD2F882309F468CFC0E066CF1F920F92D9
:100520000FB60F9211242F933F934F935F936F93C6
:100530007F938F939F93AF93BF93EF93FF9380919C
:100540002D0190912E01019690932E0180932D0103
:1005500080913501882349F080912B0190912C01E5
:10056000019690932C0180932B0180912D01909105
:100570002E01883E9340ECF081E08093330110928D
:100580002E0110922D01809129018F5F8093290106
:10059000809129018C3368F0109229018091280103
:1005A0008F5F80932801809128018C3310F0109286
:1005B000280180913501882379F080912B01909159
:1005C0002C01803D974044F0109234011092350187
:1005D00010922C0110922B0180912A018F5F809341
:1005E0002A0180912A01843010F010922A018BB1E7
:1005F0008F708BB9E0912A01F0E0E15DFE4F8081C0
:100600000E94E000E0912A019BB1F0E0E050FF4F32
:100610008081892B8BB9FF91EF91BF91AF919F9111
:100620008F917F916F915F914F913F912F910F909B
:100630000FBE0F901F90189584B5826084BD85B55C
:10064000836085BD89EF87BDEEE6F0E08081826042
:1006500080830895539AE0EBF0E080818362808389
:10066000E1EBF0E080818160808382E88093B400D8
:1006700008955058BB27AA270E9451030C943004B8
:100680000E94220438F00E94290420F039F49F3F90
:1006900019F426F40C941F040EF4E095E7FB0C9477
:1006A0001904E92F0E94410458F3BA17620773072F
:1006B0008407950720F079F4A6F50C9463040EF4F2
:1006C000E0950B2EBA2FA02D0B01B90190010C0162
:1006D000CA01A0011124FF27591B99F0593F50F47A
:1006E000503E68F11A16F040A22F232F342F4427D2
:1006F000585FF3CF469537952795A795F0405395CA
:10070000C9F77EF41F16BA0B620B730B840BBAF099
:100710009150A1F0FF0FBB1F661F771F881FC2F704
:100720000EC0BA0F621F731F841F48F48795779518
:100730006795B795F7959E3F08F0B0CF9395880FD2
:1007400008F09927EE0F9795879508950E94AD03BD
:100750006894B1110C94640408950E94490488F0CF
:100760009F5798F0B92F9927B751B0F0E1F0660F75
:10077000771F881F991F1AF0BA95C9F714C0B130B6
:1007800091F00E946304B1E008950C946304672F14
:10079000782F8827B85F39F0B93FCCF386957795E5
:1007A0006795B395D9F73EF49095809570956195CE
:1007B0007F4F8F4F9F4F0895E89409C097FB3EF4F9
:1007C00090958095709561957F4F8F4F9F4F99239E
:1007D000A9F0F92F96E9BB279395F695879577951C
:1007E0006795B795F111F8CFFAF4BB0F11F460FFDC
:1007F0001BC06F5F7F4F8F4F9F4F16C0882311F034
:1008000096E911C0772321F09EE8872F762F05C047
:10081000662371F096E8862F70E060E02AF09A95E2
:10082000660F771F881FDAF7880F9695879597F9D7
:10083000089597F99F6780E870E060E008959FEF62
:1008400080EC089500240A94161617061806090667
:10085000089500240A941216130614060506089536
:10086000092E0394000C11F4882352F0BB0F40F4BE
:10087000BF2B11F460FF04C06F5F7F4F8F4F9F4FFE
:10088000089557FD9058440F551F59F05F3F71F080
:100890004795880F97FB991F61F09F3F79F08795E7
:1008A0000895121613061406551FF2CF4695F1DF70
:1008B00008C0161617061806991FF1CF8695710500
:1008C000610508940895E894BB2766277727CB0134
:1008D00097F908950E947D040C9430040E9422042C
:1008E00038F00E94290420F0952311F00C9419048B
:1008F0000C941F0411240C9464040E94410470F3AE
:10090000959FC1F3950F50E0551F629FF001729FB4
:10091000BB27F00DB11D639FAA27F00DB11DAA1FC3
:10092000649F6627B00DA11D661F829F2227B00D10
:10093000A11D621F739FB00DA11D621F839FA00D9B
:10094000611D221F749F3327A00D611D231F849FEB
:10095000600D211D822F762F6A2F11249F57504042
:100960009AF0F1F088234AF0EE0FFF1FBB1F661FBD
:10097000771F881F91505040A9F79E3F510580F086
:100980000C9419040C9464045F3FE4F3983ED4F390
:10099000869577956795B795F795E7959F5FC1F72A
:1009A000FE2B880F911D9695879597F9089597FBD3
:1009B000072E16F4009407D077FD09D00E94EB04AF
:1009C00007FC05D03EF4909581959F4F0895709552
:1009D00061957F4F0895AA1BBB1B51E107C0AA1F59
:1009E000BB1FA617B70710F0A61BB70B881F991FD0
:1009F0005A95A9F780959095BC01CD010895F8947A
:020A0000FFCF26
:100A02001020408082EE232A4E1A12AE020A0114EE
:00000001FF
